{
  "contractName": "Lottery",
  "abi": [
    {
      "constant": true,
      "inputs": [],
      "name": "manager",
      "outputs": [
        {
          "name": "",
          "type": "address"
        }
      ],
      "payable": false,
      "stateMutability": "view",
      "type": "function"
    },
    {
      "constant": true,
      "inputs": [],
      "name": "winner",
      "outputs": [
        {
          "name": "",
          "type": "address"
        }
      ],
      "payable": false,
      "stateMutability": "view",
      "type": "function"
    },
    {
      "constant": true,
      "inputs": [
        {
          "name": "",
          "type": "uint256"
        }
      ],
      "name": "players",
      "outputs": [
        {
          "name": "",
          "type": "address"
        }
      ],
      "payable": false,
      "stateMutability": "view",
      "type": "function"
    },
    {
      "inputs": [],
      "payable": false,
      "stateMutability": "nonpayable",
      "type": "constructor"
    },
    {
      "constant": false,
      "inputs": [],
      "name": "enter",
      "outputs": [],
      "payable": true,
      "stateMutability": "payable",
      "type": "function"
    },
    {
      "constant": true,
      "inputs": [],
      "name": "random",
      "outputs": [
        {
          "name": "",
          "type": "uint256"
        }
      ],
      "payable": false,
      "stateMutability": "view",
      "type": "function"
    },
    {
      "constant": false,
      "inputs": [],
      "name": "pickWinner",
      "outputs": [],
      "payable": false,
      "stateMutability": "nonpayable",
      "type": "function"
    },
    {
      "constant": true,
      "inputs": [],
      "name": "getPlayers",
      "outputs": [
        {
          "name": "",
          "type": "address[]"
        }
      ],
      "payable": false,
      "stateMutability": "view",
      "type": "function"
    }
  ],
  "bytecode": "0x608060405234801561001057600080fd5b50336000806101000a81548173ffffffffffffffffffffffffffffffffffffffff021916908373ffffffffffffffffffffffffffffffffffffffff16021790555033600160006101000a81548173ffffffffffffffffffffffffffffffffffffffff021916908373ffffffffffffffffffffffffffffffffffffffff1602179055506106f0806100a16000396000f300608060405260043610610083576000357c0100000000000000000000000000000000000000000000000000000000900463ffffffff168063481c6a75146100885780635d495aea146100df5780635ec01e4d146100f65780638b5b9ccc14610121578063dfbf53ae1461018d578063e97dcb62146101e4578063f71d96cb146101ee575b600080fd5b34801561009457600080fd5b5061009d61025b565b604051808273ffffffffffffffffffffffffffffffffffffffff1673ffffffffffffffffffffffffffffffffffffffff16815260200191505060405180910390f35b3480156100eb57600080fd5b506100f4610280565b005b34801561010257600080fd5b5061010b610452565b6040518082815260200191505060405180910390f35b34801561012d57600080fd5b50610136610488565b6040518080602001828103825283818151815260200191508051906020019060200280838360005b8381101561017957808201518184015260208101905061015e565b505050509050019250505060405180910390f35b34801561019957600080fd5b506101a2610516565b604051808273ffffffffffffffffffffffffffffffffffffffff1673ffffffffffffffffffffffffffffffffffffffff16815260200191505060405180910390f35b6101ec61053c565b005b3480156101fa57600080fd5b50610219600480360381019080803590602001909291905050506105b9565b604051808273ffffffffffffffffffffffffffffffffffffffff1673ffffffffffffffffffffffffffffffffffffffff16815260200191505060405180910390f35b6000809054906101000a900473ffffffffffffffffffffffffffffffffffffffff1681565b60008060009054906101000a900473ffffffffffffffffffffffffffffffffffffffff1673ffffffffffffffffffffffffffffffffffffffff163373ffffffffffffffffffffffffffffffffffffffff161415156102dd57600080fd5b6002805490506102eb610452565b8115156102f457fe5b06905060028181548110151561030657fe5b9060005260206000200160009054906101000a900473ffffffffffffffffffffffffffffffffffffffff1673ffffffffffffffffffffffffffffffffffffffff166108fc3073ffffffffffffffffffffffffffffffffffffffff16319081150290604051600060405180830381858888f1935050505015801561038d573d6000803e3d6000fd5b5060028181548110151561039d57fe5b9060005260206000200160009054906101000a900473ffffffffffffffffffffffffffffffffffffffff16600160006101000a81548173ffffffffffffffffffffffffffffffffffffffff021916908373ffffffffffffffffffffffffffffffffffffffff16021790555060006040519080825280602002602001820160405280156104385781602001602082028038833980820191505090505b506002908051906020019061044e9291906105f7565b5050565b60004442600280549050604051808481526020018381526020018281526020019350505050604051809103902060019004905090565b6060600280548060200260200160405190810160405280929190818152602001828054801561050c57602002820191906000526020600020905b8160009054906101000a900473ffffffffffffffffffffffffffffffffffffffff1673ffffffffffffffffffffffffffffffffffffffff16815260200190600101908083116104c2575b5050505050905090565b600160009054906101000a900473ffffffffffffffffffffffffffffffffffffffff1681565b662386f26fc100003411151561055157600080fd5b60023390806001815401808255809150509060018203906000526020600020016000909192909190916101000a81548173ffffffffffffffffffffffffffffffffffffffff021916908373ffffffffffffffffffffffffffffffffffffffff16021790555050565b6002818154811015156105c857fe5b906000526020600020016000915054906101000a900473ffffffffffffffffffffffffffffffffffffffff1681565b828054828255906000526020600020908101928215610670579160200282015b8281111561066f5782518260006101000a81548173ffffffffffffffffffffffffffffffffffffffff021916908373ffffffffffffffffffffffffffffffffffffffff16021790555091602001919060010190610617565b5b50905061067d9190610681565b5090565b6106c191905b808211156106bd57600081816101000a81549073ffffffffffffffffffffffffffffffffffffffff021916905550600101610687565b5090565b905600a165627a7a72305820b7844201249209c6f4f404db96baa8474c551da9087a041153c53d00de3a94350029",
  "source": "pragma solidity ^0.4.17;\n\ncontract Lottery {\n    address public manager;\n    address public winner;\n    address[] public players;\n\n    function Lottery() public {\n        manager = msg.sender;\n        winner = msg.sender;\n    }\n    \n    function enter() public payable {\n        require(msg.value > .01 ether);\n        players.push(msg.sender);\n    }\n    \n    function random() public view returns (uint) {\n        return uint(keccak256(block.difficulty, now, players.length));\n    }\n    \n    function pickWinner() public restricted {\n        uint index = random() % players.length;\n        players[index].transfer(this.balance);\n        winner = players[index];\n        players = new address[](0);\n    }\n    \n    modifier restricted() {\n        require(msg.sender == manager);\n        _;\n    }\n    \n    function getPlayers() public view returns (address[]) {\n        return players;\n    }\n}",
  "sourcePath": "/Users/kimvcp/Documents/workspace/softwareArch/dapp_projects/lottereum-frontend/ethereum/contracts/Lottery.sol",
  "compiler": {
    "name": "solc",
    "version": "0.4.26+commit.4563c3fc.Emscripten.clang"
  },
  "schemaVersion": "3.1.0",
  "updatedAt": "2020-04-28T06:44:12.601Z",
  "networkType": "ethereum",
  "devdoc": {
    "methods": {}
  },
  "userdoc": {
    "methods": {}
  }
}