{
  "contractName": "Lottery",
  "abi": [
    {
      "constant": true,
      "inputs": [],
      "name": "manager",
      "outputs": [
        {
          "name": "",
          "type": "address"
        }
      ],
      "payable": false,
      "stateMutability": "view",
      "type": "function"
    },
    {
      "constant": true,
      "inputs": [
        {
          "name": "",
          "type": "uint256"
        }
      ],
      "name": "players",
      "outputs": [
        {
          "name": "",
          "type": "address"
        }
      ],
      "payable": false,
      "stateMutability": "view",
      "type": "function"
    },
    {
      "inputs": [],
      "payable": false,
      "stateMutability": "nonpayable",
      "type": "constructor"
    },
    {
      "constant": false,
      "inputs": [],
      "name": "enter",
      "outputs": [],
      "payable": true,
      "stateMutability": "payable",
      "type": "function"
    },
    {
      "constant": true,
      "inputs": [],
      "name": "random",
      "outputs": [
        {
          "name": "",
          "type": "uint256"
        }
      ],
      "payable": false,
      "stateMutability": "view",
      "type": "function"
    },
    {
      "constant": false,
      "inputs": [],
      "name": "pickWinner",
      "outputs": [],
      "payable": false,
      "stateMutability": "nonpayable",
      "type": "function"
    },
    {
      "constant": true,
      "inputs": [],
      "name": "getPlayers",
      "outputs": [
        {
          "name": "",
          "type": "address[]"
        }
      ],
      "payable": false,
      "stateMutability": "view",
      "type": "function"
    }
  ],
  "bytecode": "0x608060405234801561001057600080fd5b50336000806101000a81548173ffffffffffffffffffffffffffffffffffffffff021916908373ffffffffffffffffffffffffffffffffffffffff1602179055506105ee806100606000396000f300608060405260043610610078576000357c0100000000000000000000000000000000000000000000000000000000900463ffffffff168063481c6a751461007d5780635d495aea146100d45780635ec01e4d146100eb5780638b5b9ccc14610116578063e97dcb6214610182578063f71d96cb1461018c575b600080fd5b34801561008957600080fd5b506100926101f9565b604051808273ffffffffffffffffffffffffffffffffffffffff1673ffffffffffffffffffffffffffffffffffffffff16815260200191505060405180910390f35b3480156100e057600080fd5b506100e961021e565b005b3480156100f757600080fd5b50610100610376565b6040518082815260200191505060405180910390f35b34801561012257600080fd5b5061012b6103ac565b6040518080602001828103825283818151815260200191508051906020019060200280838360005b8381101561016e578082015181840152602081019050610153565b505050509050019250505060405180910390f35b61018a61043a565b005b34801561019857600080fd5b506101b7600480360381019080803590602001909291905050506104b7565b604051808273ffffffffffffffffffffffffffffffffffffffff1673ffffffffffffffffffffffffffffffffffffffff16815260200191505060405180910390f35b6000809054906101000a900473ffffffffffffffffffffffffffffffffffffffff1681565b60008060009054906101000a900473ffffffffffffffffffffffffffffffffffffffff1673ffffffffffffffffffffffffffffffffffffffff163373ffffffffffffffffffffffffffffffffffffffff1614151561027b57600080fd5b600180549050610289610376565b81151561029257fe5b0690506001818154811015156102a457fe5b9060005260206000200160009054906101000a900473ffffffffffffffffffffffffffffffffffffffff1673ffffffffffffffffffffffffffffffffffffffff166108fc3073ffffffffffffffffffffffffffffffffffffffff16319081150290604051600060405180830381858888f1935050505015801561032b573d6000803e3d6000fd5b50600060405190808252806020026020018201604052801561035c5781602001602082028038833980820191505090505b50600190805190602001906103729291906104f5565b5050565b60004442600180549050604051808481526020018381526020018281526020019350505050604051809103902060019004905090565b6060600180548060200260200160405190810160405280929190818152602001828054801561043057602002820191906000526020600020905b8160009054906101000a900473ffffffffffffffffffffffffffffffffffffffff1673ffffffffffffffffffffffffffffffffffffffff16815260200190600101908083116103e6575b5050505050905090565b662386f26fc100003411151561044f57600080fd5b60013390806001815401808255809150509060018203906000526020600020016000909192909190916101000a81548173ffffffffffffffffffffffffffffffffffffffff021916908373ffffffffffffffffffffffffffffffffffffffff16021790555050565b6001818154811015156104c657fe5b906000526020600020016000915054906101000a900473ffffffffffffffffffffffffffffffffffffffff1681565b82805482825590600052602060002090810192821561056e579160200282015b8281111561056d5782518260006101000a81548173ffffffffffffffffffffffffffffffffffffffff021916908373ffffffffffffffffffffffffffffffffffffffff16021790555091602001919060010190610515565b5b50905061057b919061057f565b5090565b6105bf91905b808211156105bb57600081816101000a81549073ffffffffffffffffffffffffffffffffffffffff021916905550600101610585565b5090565b905600a165627a7a72305820e96eaba4b653942bbea6ccdd966a48735ed6a25056f865dff566d7908a9128ad0029",
  "source": "pragma solidity ^0.4.17;\n\ncontract Lottery {\n    address public manager;\n    address[] public players;\n\n    function Lottery() public {\n        manager = msg.sender;\n    }\n\n    function enter() public payable {\n        require(msg.value > .01 ether);\n        players.push(msg.sender);\n    }\n\n    function random() public view returns (uint) {\n        return uint(keccak256(block.difficulty, now, players.length));\n    }\n\n    function pickWinner() public restricted {\n        uint index = random() % players.length;\n        players[index].transfer(this.balance);\n        players = new address[](0);\n    }\n\n    modifier restricted() {\n        require(msg.sender == manager);\n        _;\n    }\n\n    function getPlayers() public view returns (address[]) {\n        return players;\n    }\n}",
  "sourcePath": "/Users/kimvcp/Documents/workspace/softwareArch/dapp_projects/lottereum-frontend/ethereum/contracts/Lottery.sol",
  "compiler": {
    "name": "solc",
    "version": "0.4.26+commit.4563c3fc.Emscripten.clang"
  },
  "schemaVersion": "3.1.0",
  "updatedAt": "2020-04-25T16:00:52.747Z",
  "networkType": "ethereum",
  "devdoc": {
    "methods": {}
  },
  "userdoc": {
    "methods": {}
  }
}